{
  "_format": "hh-sol-artifact-1",
  "contractName": "PropertyRegistry",
  "sourceName": "contracts/PropertyRegistry.sol",
  "abi": [
    {
      "inputs": [],
      "stateMutability": "nonpayable",
      "type": "constructor"
    },
    {
      "inputs": [
        {
          "internalType": "string",
          "name": "_certId",
          "type": "string"
        },
        {
          "internalType": "string",
          "name": "_owner",
          "type": "string"
        },
        {
          "internalType": "string",
          "name": "_propertyType",
          "type": "string"
        },
        {
          "internalType": "string",
          "name": "_location",
          "type": "string"
        },
        {
          "internalType": "uint256",
          "name": "_area",
          "type": "uint256"
        },
        {
          "internalType": "string",
          "name": "_date",
          "type": "string"
        }
      ],
      "name": "addCertificate",
      "outputs": [],
      "stateMutability": "nonpayable",
      "type": "function"
    },
    {
      "inputs": [],
      "name": "admin",
      "outputs": [
        {
          "internalType": "address",
          "name": "",
          "type": "address"
        }
      ],
      "stateMutability": "view",
      "type": "function"
    },
    {
      "inputs": [
        {
          "internalType": "string",
          "name": "",
          "type": "string"
        }
      ],
      "name": "certificates",
      "outputs": [
        {
          "internalType": "string",
          "name": "owner",
          "type": "string"
        },
        {
          "internalType": "string",
          "name": "propertyType",
          "type": "string"
        },
        {
          "internalType": "string",
          "name": "location",
          "type": "string"
        },
        {
          "internalType": "uint256",
          "name": "area",
          "type": "uint256"
        },
        {
          "internalType": "string",
          "name": "date",
          "type": "string"
        },
        {
          "internalType": "string",
          "name": "certId",
          "type": "string"
        }
      ],
      "stateMutability": "view",
      "type": "function"
    },
    {
      "inputs": [],
      "name": "getAdmin",
      "outputs": [
        {
          "internalType": "address",
          "name": "",
          "type": "address"
        }
      ],
      "stateMutability": "view",
      "type": "function"
    },
    {
      "inputs": [
        {
          "internalType": "string",
          "name": "_certId",
          "type": "string"
        }
      ],
      "name": "verifyCertificate",
      "outputs": [
        {
          "components": [
            {
              "internalType": "string",
              "name": "owner",
              "type": "string"
            },
            {
              "internalType": "string",
              "name": "propertyType",
              "type": "string"
            },
            {
              "internalType": "string",
              "name": "location",
              "type": "string"
            },
            {
              "internalType": "uint256",
              "name": "area",
              "type": "uint256"
            },
            {
              "internalType": "string",
              "name": "date",
              "type": "string"
            },
            {
              "internalType": "string",
              "name": "certId",
              "type": "string"
            }
          ],
          "internalType": "struct PropertyRegistry.Certificate",
          "name": "",
          "type": "tuple"
        }
      ],
      "stateMutability": "view",
      "type": "function"
    }
  ],
  "bytecode": "0x6080604052348015600f57600080fd5b50336000806101000a81548173ffffffffffffffffffffffffffffffffffffffff021916908373ffffffffffffffffffffffffffffffffffffffff1602179055506112618061005f6000396000f3fe608060405234801561001057600080fd5b50600436106100575760003560e01c80636e9960c31461005c5780638b23d8751461007a5780638f2b91ea146100aa578063f851a440146100df578063ffd022bd146100fd575b600080fd5b610064610119565b604051610071919061094f565b60405180910390f35b610094600480360381019061008f9190610ac4565b610142565b6040516100a19190610c4a565b60405180910390f35b6100c460048036038101906100bf9190610ac4565b61045e565b6040516100d696959493929190610cc5565b60405180910390f35b6100e7610758565b6040516100f4919061094f565b60405180910390f35b61011760048036038101906101129190610d75565b61077c565b005b60008060009054906101000a900473ffffffffffffffffffffffffffffffffffffffff16905090565b61014a6108d8565b60018260405161015a9190610eca565b90815260200160405180910390206040518060c001604052908160008201805461018390610f10565b80601f01602080910402602001604051908101604052809291908181526020018280546101af90610f10565b80156101fc5780601f106101d1576101008083540402835291602001916101fc565b820191906000526020600020905b8154815290600101906020018083116101df57829003601f168201915b5050505050815260200160018201805461021590610f10565b80601f016020809104026020016040519081016040528092919081815260200182805461024190610f10565b801561028e5780601f106102635761010080835404028352916020019161028e565b820191906000526020600020905b81548152906001019060200180831161027157829003601f168201915b505050505081526020016002820180546102a790610f10565b80601f01602080910402602001604051908101604052809291908181526020018280546102d390610f10565b80156103205780601f106102f557610100808354040283529160200191610320565b820191906000526020600020905b81548152906001019060200180831161030357829003601f168201915b505050505081526020016003820154815260200160048201805461034390610f10565b80601f016020809104026020016040519081016040528092919081815260200182805461036f90610f10565b80156103bc5780601f10610391576101008083540402835291602001916103bc565b820191906000526020600020905b81548152906001019060200180831161039f57829003601f168201915b505050505081526020016005820180546103d590610f10565b80601f016020809104026020016040519081016040528092919081815260200182805461040190610f10565b801561044e5780601f106104235761010080835404028352916020019161044e565b820191906000526020600020905b81548152906001019060200180831161043157829003601f168201915b5050505050815250509050919050565b60018180516020810182018051848252602083016020850120818352809550505050505060009150905080600001805461049790610f10565b80601f01602080910402602001604051908101604052809291908181526020018280546104c390610f10565b80156105105780601f106104e557610100808354040283529160200191610510565b820191906000526020600020905b8154815290600101906020018083116104f357829003601f168201915b50505050509080600101805461052590610f10565b80601f016020809104026020016040519081016040528092919081815260200182805461055190610f10565b801561059e5780601f106105735761010080835404028352916020019161059e565b820191906000526020600020905b81548152906001019060200180831161058157829003601f168201915b5050505050908060020180546105b390610f10565b80601f01602080910402602001604051908101604052809291908181526020018280546105df90610f10565b801561062c5780601f106106015761010080835404028352916020019161062c565b820191906000526020600020905b81548152906001019060200180831161060f57829003601f168201915b50505050509080600301549080600401805461064790610f10565b80601f016020809104026020016040519081016040528092919081815260200182805461067390610f10565b80156106c05780601f10610695576101008083540402835291602001916106c0565b820191906000526020600020905b8154815290600101906020018083116106a357829003601f168201915b5050505050908060050180546106d590610f10565b80601f016020809104026020016040519081016040528092919081815260200182805461070190610f10565b801561074e5780601f106107235761010080835404028352916020019161074e565b820191906000526020600020905b81548152906001019060200180831161073157829003601f168201915b5050505050905086565b60008054906101000a900473ffffffffffffffffffffffffffffffffffffffff1681565b60008054906101000a900473ffffffffffffffffffffffffffffffffffffffff1673ffffffffffffffffffffffffffffffffffffffff163373ffffffffffffffffffffffffffffffffffffffff161461080a576040517f08c379a000000000000000000000000000000000000000000000000000000000815260040161080190610f8d565b60405180910390fd5b6040518060c00160405280868152602001858152602001848152602001838152602001828152602001878152506001876040516108479190610eca565b9081526020016040518091039020600082015181600001908161086a9190611159565b5060208201518160010190816108809190611159565b5060408201518160020190816108969190611159565b506060820151816003015560808201518160040190816108b69190611159565b5060a08201518160050190816108cc9190611159565b50905050505050505050565b6040518060c001604052806060815260200160608152602001606081526020016000815260200160608152602001606081525090565b600073ffffffffffffffffffffffffffffffffffffffff82169050919050565b60006109398261090e565b9050919050565b6109498161092e565b82525050565b60006020820190506109646000830184610940565b92915050565b6000604051905090565b600080fd5b600080fd5b600080fd5b600080fd5b6000601f19601f8301169050919050565b7f4e487b7100000000000000000000000000000000000000000000000000000000600052604160045260246000fd5b6109d182610988565b810181811067ffffffffffffffff821117156109f0576109ef610999565b5b80604052505050565b6000610a0361096a565b9050610a0f82826109c8565b919050565b600067ffffffffffffffff821115610a2f57610a2e610999565b5b610a3882610988565b9050602081019050919050565b82818337600083830152505050565b6000610a67610a6284610a14565b6109f9565b905082815260208101848484011115610a8357610a82610983565b5b610a8e848285610a45565b509392505050565b600082601f830112610aab57610aaa61097e565b5b8135610abb848260208601610a54565b91505092915050565b600060208284031215610ada57610ad9610974565b5b600082013567ffffffffffffffff811115610af857610af7610979565b5b610b0484828501610a96565b91505092915050565b600081519050919050565b600082825260208201905092915050565b60005b83811015610b47578082015181840152602081019050610b2c565b60008484015250505050565b6000610b5e82610b0d565b610b688185610b18565b9350610b78818560208601610b29565b610b8181610988565b840191505092915050565b6000819050919050565b610b9f81610b8c565b82525050565b600060c0830160008301518482036000860152610bc28282610b53565b91505060208301518482036020860152610bdc8282610b53565b91505060408301518482036040860152610bf68282610b53565b9150506060830151610c0b6060860182610b96565b5060808301518482036080860152610c238282610b53565b91505060a083015184820360a0860152610c3d8282610b53565b9150508091505092915050565b60006020820190508181036000830152610c648184610ba5565b905092915050565b600082825260208201905092915050565b6000610c8882610b0d565b610c928185610c6c565b9350610ca2818560208601610b29565b610cab81610988565b840191505092915050565b610cbf81610b8c565b82525050565b600060c0820190508181036000830152610cdf8189610c7d565b90508181036020830152610cf38188610c7d565b90508181036040830152610d078187610c7d565b9050610d166060830186610cb6565b8181036080830152610d288185610c7d565b905081810360a0830152610d3c8184610c7d565b9050979650505050505050565b610d5281610b8c565b8114610d5d57600080fd5b50565b600081359050610d6f81610d49565b92915050565b60008060008060008060c08789031215610d9257610d91610974565b5b600087013567ffffffffffffffff811115610db057610daf610979565b5b610dbc89828a01610a96565b965050602087013567ffffffffffffffff811115610ddd57610ddc610979565b5b610de989828a01610a96565b955050604087013567ffffffffffffffff811115610e0a57610e09610979565b5b610e1689828a01610a96565b945050606087013567ffffffffffffffff811115610e3757610e36610979565b5b610e4389828a01610a96565b9350506080610e5489828a01610d60565b92505060a087013567ffffffffffffffff811115610e7557610e74610979565b5b610e8189828a01610a96565b9150509295509295509295565b600081905092915050565b6000610ea482610b0d565b610eae8185610e8e565b9350610ebe818560208601610b29565b80840191505092915050565b6000610ed68284610e99565b915081905092915050565b7f4e487b7100000000000000000000000000000000000000000000000000000000600052602260045260246000fd5b60006002820490506001821680610f2857607f821691505b602082108103610f3b57610f3a610ee1565b5b50919050565b7f4e6f7420617574686f72697a6564000000000000000000000000000000000000600082015250565b6000610f77600e83610c6c565b9150610f8282610f41565b602082019050919050565b60006020820190508181036000830152610fa681610f6a565b9050919050565b60008190508160005260206000209050919050565b60006020601f8301049050919050565b600082821b905092915050565b60006008830261100f7fffffffffffffffffffffffffffffffffffffffffffffffffffffffffffffffff82610fd2565b6110198683610fd2565b95508019841693508086168417925050509392505050565b6000819050919050565b600061105661105161104c84610b8c565b611031565b610b8c565b9050919050565b6000819050919050565b6110708361103b565b61108461107c8261105d565b848454610fdf565b825550505050565b600090565b61109961108c565b6110a4818484611067565b505050565b5b818110156110c8576110bd600082611091565b6001810190506110aa565b5050565b601f82111561110d576110de81610fad565b6110e784610fc2565b810160208510156110f6578190505b61110a61110285610fc2565b8301826110a9565b50505b505050565b600082821c905092915050565b600061113060001984600802611112565b1980831691505092915050565b6000611149838361111f565b9150826002028217905092915050565b61116282610b0d565b67ffffffffffffffff81111561117b5761117a610999565b5b6111858254610f10565b6111908282856110cc565b600060209050601f8311600181146111c357600084156111b1578287015190505b6111bb858261113d565b865550611223565b601f1984166111d186610fad565b60005b828110156111f9578489015182556001820191506020850194506020810190506111d4565b868310156112165784890151611212601f89168261111f565b8355505b6001600288020188555050505b50505050505056fea2646970667358221220b236518d8af8a75af2ea7786370e3d672cbbe14591794f5a9145d00ea341e91264736f6c634300081e0033",
  "linkReferences": {},
  "deployedLinkReferences": {}
}