{
  "_format": "hh-sol-artifact-1",
  "contractName": "PropertyRegistry",
  "sourceName": "contracts/PropertyRegistry.sol",
  "abi": [
    {
      "inputs": [],
      "stateMutability": "nonpayable",
      "type": "constructor"
    },
    {
      "inputs": [
        {
          "internalType": "string",
          "name": "_certId",
          "type": "string"
        },
        {
          "internalType": "string",
          "name": "_owner",
          "type": "string"
        },
        {
          "internalType": "string",
          "name": "_propertyType",
          "type": "string"
        },
        {
          "internalType": "string",
          "name": "_location",
          "type": "string"
        },
        {
          "internalType": "uint256",
          "name": "_area",
          "type": "uint256"
        },
        {
          "internalType": "string",
          "name": "_date",
          "type": "string"
        }
      ],
      "name": "addCertificate",
      "outputs": [],
      "stateMutability": "nonpayable",
      "type": "function"
    },
    {
      "inputs": [],
      "name": "admin",
      "outputs": [
        {
          "internalType": "address",
          "name": "",
          "type": "address"
        }
      ],
      "stateMutability": "view",
      "type": "function"
    },
    {
      "inputs": [
        {
          "internalType": "uint256",
          "name": "",
          "type": "uint256"
        }
      ],
      "name": "certIds",
      "outputs": [
        {
          "internalType": "string",
          "name": "",
          "type": "string"
        }
      ],
      "stateMutability": "view",
      "type": "function"
    },
    {
      "inputs": [
        {
          "internalType": "string",
          "name": "",
          "type": "string"
        }
      ],
      "name": "certificates",
      "outputs": [
        {
          "internalType": "string",
          "name": "owner",
          "type": "string"
        },
        {
          "internalType": "string",
          "name": "propertyType",
          "type": "string"
        },
        {
          "internalType": "string",
          "name": "location",
          "type": "string"
        },
        {
          "internalType": "uint256",
          "name": "area",
          "type": "uint256"
        },
        {
          "internalType": "string",
          "name": "date",
          "type": "string"
        },
        {
          "internalType": "string",
          "name": "certId",
          "type": "string"
        }
      ],
      "stateMutability": "view",
      "type": "function"
    },
    {
      "inputs": [],
      "name": "getAdmin",
      "outputs": [
        {
          "internalType": "address",
          "name": "",
          "type": "address"
        }
      ],
      "stateMutability": "view",
      "type": "function"
    },
    {
      "inputs": [],
      "name": "getAllCertIds",
      "outputs": [
        {
          "internalType": "string[]",
          "name": "",
          "type": "string[]"
        }
      ],
      "stateMutability": "view",
      "type": "function"
    },
    {
      "inputs": [],
      "name": "getAllCertificates",
      "outputs": [
        {
          "components": [
            {
              "internalType": "string",
              "name": "owner",
              "type": "string"
            },
            {
              "internalType": "string",
              "name": "propertyType",
              "type": "string"
            },
            {
              "internalType": "string",
              "name": "location",
              "type": "string"
            },
            {
              "internalType": "uint256",
              "name": "area",
              "type": "uint256"
            },
            {
              "internalType": "string",
              "name": "date",
              "type": "string"
            },
            {
              "internalType": "string",
              "name": "certId",
              "type": "string"
            }
          ],
          "internalType": "struct PropertyRegistry.Certificate[]",
          "name": "",
          "type": "tuple[]"
        }
      ],
      "stateMutability": "view",
      "type": "function"
    },
    {
      "inputs": [
        {
          "internalType": "string",
          "name": "_certId",
          "type": "string"
        },
        {
          "internalType": "string",
          "name": "_owner",
          "type": "string"
        },
        {
          "internalType": "string",
          "name": "_propertyType",
          "type": "string"
        },
        {
          "internalType": "string",
          "name": "_location",
          "type": "string"
        },
        {
          "internalType": "uint256",
          "name": "_area",
          "type": "uint256"
        },
        {
          "internalType": "string",
          "name": "_date",
          "type": "string"
        }
      ],
      "name": "updateCertificate",
      "outputs": [],
      "stateMutability": "nonpayable",
      "type": "function"
    },
    {
      "inputs": [
        {
          "internalType": "string",
          "name": "_certId",
          "type": "string"
        }
      ],
      "name": "verifyCertificate",
      "outputs": [
        {
          "components": [
            {
              "internalType": "string",
              "name": "owner",
              "type": "string"
            },
            {
              "internalType": "string",
              "name": "propertyType",
              "type": "string"
            },
            {
              "internalType": "string",
              "name": "location",
              "type": "string"
            },
            {
              "internalType": "uint256",
              "name": "area",
              "type": "uint256"
            },
            {
              "internalType": "string",
              "name": "date",
              "type": "string"
            },
            {
              "internalType": "string",
              "name": "certId",
              "type": "string"
            }
          ],
          "internalType": "struct PropertyRegistry.Certificate",
          "name": "",
          "type": "tuple"
        }
      ],
      "stateMutability": "view",
      "type": "function"
    }
  ],
  "bytecode": "0x6080604052348015600f57600080fd5b50336000806101000a81548173ffffffffffffffffffffffffffffffffffffffff021916908373ffffffffffffffffffffffffffffffffffffffff160217905550611e688061005f6000396000f3fe608060405234801561001057600080fd5b50600436106100935760003560e01c80638f2b91ea116100665780638f2b91ea146101225780639da4f08614610157578063bb832e4f14610173578063f851a440146101a3578063ffd022bd146101c157610093565b806313fcfe80146100985780636e9960c3146100b65780638276c522146100d45780638b23d875146100f2575b600080fd5b6100a06101dd565b6040516100ad9190611334565b60405180910390f35b6100be6105a9565b6040516100cb9190611397565b60405180910390f35b6100dc6105d2565b6040516100e99190611474565b60405180910390f35b61010c600480360381019061010791906115df565b6106ab565b60405161011991906116cd565b60405180910390f35b61013c600480360381019061013791906115df565b6109c7565b60405161014e96959493929190611748565b60405180910390f35b610171600480360381019061016c91906117f8565b610cc1565b005b61018d60048036038101906101889190611911565b610e8d565b60405161019a919061193e565b60405180910390f35b6101ab610f39565b6040516101b89190611397565b60405180910390f35b6101db60048036038101906101d691906117f8565b610f5d565b005b6060600060028054905067ffffffffffffffff811115610200576101ff6114b4565b5b60405190808252806020026020018201604052801561023957816020015b6102266110ee565b81526020019060019003908161021e5790505b50905060005b6002805490508110156105a15760016002828154811061026257610261611960565b5b906000526020600020016040516102799190611a92565b90815260200160405180910390206040518060c00160405290816000820180546102a2906119be565b80601f01602080910402602001604051908101604052809291908181526020018280546102ce906119be565b801561031b5780601f106102f05761010080835404028352916020019161031b565b820191906000526020600020905b8154815290600101906020018083116102fe57829003601f168201915b50505050508152602001600182018054610334906119be565b80601f0160208091040260200160405190810160405280929190818152602001828054610360906119be565b80156103ad5780601f10610382576101008083540402835291602001916103ad565b820191906000526020600020905b81548152906001019060200180831161039057829003601f168201915b505050505081526020016002820180546103c6906119be565b80601f01602080910402602001604051908101604052809291908181526020018280546103f2906119be565b801561043f5780601f106104145761010080835404028352916020019161043f565b820191906000526020600020905b81548152906001019060200180831161042257829003601f168201915b5050505050815260200160038201548152602001600482018054610462906119be565b80601f016020809104026020016040519081016040528092919081815260200182805461048e906119be565b80156104db5780601f106104b0576101008083540402835291602001916104db565b820191906000526020600020905b8154815290600101906020018083116104be57829003601f168201915b505050505081526020016005820180546104f4906119be565b80601f0160208091040260200160405190810160405280929190818152602001828054610520906119be565b801561056d5780601f106105425761010080835404028352916020019161056d565b820191906000526020600020905b81548152906001019060200180831161055057829003601f168201915b50505050508152505082828151811061058957610588611960565b5b6020026020010181905250808060010191505061023f565b508091505090565b60008060009054906101000a900473ffffffffffffffffffffffffffffffffffffffff16905090565b60606002805480602002602001604051908101604052809291908181526020016000905b828210156106a2578382906000526020600020018054610615906119be565b80601f0160208091040260200160405190810160405280929190818152602001828054610641906119be565b801561068e5780601f106106635761010080835404028352916020019161068e565b820191906000526020600020905b81548152906001019060200180831161067157829003601f168201915b5050505050815260200190600101906105f6565b50505050905090565b6106b36110ee565b6001826040516106c39190611ada565b90815260200160405180910390206040518060c00160405290816000820180546106ec906119be565b80601f0160208091040260200160405190810160405280929190818152602001828054610718906119be565b80156107655780601f1061073a57610100808354040283529160200191610765565b820191906000526020600020905b81548152906001019060200180831161074857829003601f168201915b5050505050815260200160018201805461077e906119be565b80601f01602080910402602001604051908101604052809291908181526020018280546107aa906119be565b80156107f75780601f106107cc576101008083540402835291602001916107f7565b820191906000526020600020905b8154815290600101906020018083116107da57829003601f168201915b50505050508152602001600282018054610810906119be565b80601f016020809104026020016040519081016040528092919081815260200182805461083c906119be565b80156108895780601f1061085e57610100808354040283529160200191610889565b820191906000526020600020905b81548152906001019060200180831161086c57829003601f168201915b50505050508152602001600382015481526020016004820180546108ac906119be565b80601f01602080910402602001604051908101604052809291908181526020018280546108d8906119be565b80156109255780601f106108fa57610100808354040283529160200191610925565b820191906000526020600020905b81548152906001019060200180831161090857829003601f168201915b5050505050815260200160058201805461093e906119be565b80601f016020809104026020016040519081016040528092919081815260200182805461096a906119be565b80156109b75780601f1061098c576101008083540402835291602001916109b7565b820191906000526020600020905b81548152906001019060200180831161099a57829003601f168201915b5050505050815250509050919050565b600181805160208101820180518482526020830160208501208183528095505050505050600091509050806000018054610a00906119be565b80601f0160208091040260200160405190810160405280929190818152602001828054610a2c906119be565b8015610a795780601f10610a4e57610100808354040283529160200191610a79565b820191906000526020600020905b815481529060010190602001808311610a5c57829003601f168201915b505050505090806001018054610a8e906119be565b80601f0160208091040260200160405190810160405280929190818152602001828054610aba906119be565b8015610b075780601f10610adc57610100808354040283529160200191610b07565b820191906000526020600020905b815481529060010190602001808311610aea57829003601f168201915b505050505090806002018054610b1c906119be565b80601f0160208091040260200160405190810160405280929190818152602001828054610b48906119be565b8015610b955780601f10610b6a57610100808354040283529160200191610b95565b820191906000526020600020905b815481529060010190602001808311610b7857829003601f168201915b505050505090806003015490806004018054610bb0906119be565b80601f0160208091040260200160405190810160405280929190818152602001828054610bdc906119be565b8015610c295780601f10610bfe57610100808354040283529160200191610c29565b820191906000526020600020905b815481529060010190602001808311610c0c57829003601f168201915b505050505090806005018054610c3e906119be565b80601f0160208091040260200160405190810160405280929190818152602001828054610c6a906119be565b8015610cb75780601f10610c8c57610100808354040283529160200191610cb7565b820191906000526020600020905b815481529060010190602001808311610c9a57829003601f168201915b5050505050905086565b60008054906101000a900473ffffffffffffffffffffffffffffffffffffffff1673ffffffffffffffffffffffffffffffffffffffff163373ffffffffffffffffffffffffffffffffffffffff1614610d4f576040517f08c379a0000000000000000000000000000000000000000000000000000000008152600401610d4690611b3d565b60405180910390fd5b6000600187604051610d619190611ada565b90815260200160405180910390206000018054610d7d906119be565b905011610dbf576040517f08c379a0000000000000000000000000000000000000000000000000000000008152600401610db690611ba9565b60405180910390fd5b6040518060c0016040528086815260200185815260200184815260200183815260200182815260200187815250600187604051610dfc9190611ada565b90815260200160405180910390206000820151816000019081610e1f9190611d60565b506020820151816001019081610e359190611d60565b506040820151816002019081610e4b9190611d60565b50606082015181600301556080820151816004019081610e6b9190611d60565b5060a0820151816005019081610e819190611d60565b50905050505050505050565b60028181548110610e9d57600080fd5b906000526020600020016000915090508054610eb8906119be565b80601f0160208091040260200160405190810160405280929190818152602001828054610ee4906119be565b8015610f315780601f10610f0657610100808354040283529160200191610f31565b820191906000526020600020905b815481529060010190602001808311610f1457829003601f168201915b505050505081565b60008054906101000a900473ffffffffffffffffffffffffffffffffffffffff1681565b60008054906101000a900473ffffffffffffffffffffffffffffffffffffffff1673ffffffffffffffffffffffffffffffffffffffff163373ffffffffffffffffffffffffffffffffffffffff1614610feb576040517f08c379a0000000000000000000000000000000000000000000000000000000008152600401610fe290611b3d565b60405180910390fd5b6040518060c00160405280868152602001858152602001848152602001838152602001828152602001878152506001876040516110289190611ada565b9081526020016040518091039020600082015181600001908161104b9190611d60565b5060208201518160010190816110619190611d60565b5060408201518160020190816110779190611d60565b506060820151816003015560808201518160040190816110979190611d60565b5060a08201518160050190816110ad9190611d60565b509050506002869080600181540180825580915050600190039060005260206000200160009091909190915090816110e59190611d60565b50505050505050565b6040518060c001604052806060815260200160608152602001606081526020016000815260200160608152602001606081525090565b600081519050919050565b600082825260208201905092915050565b6000819050602082019050919050565b600081519050919050565b600082825260208201905092915050565b60005b8381101561118a57808201518184015260208101905061116f565b60008484015250505050565b6000601f19601f8301169050919050565b60006111b282611150565b6111bc818561115b565b93506111cc81856020860161116c565b6111d581611196565b840191505092915050565b6000819050919050565b6111f3816111e0565b82525050565b600060c083016000830151848203600086015261121682826111a7565b9150506020830151848203602086015261123082826111a7565b9150506040830151848203604086015261124a82826111a7565b915050606083015161125f60608601826111ea565b506080830151848203608086015261127782826111a7565b91505060a083015184820360a086015261129182826111a7565b9150508091505092915050565b60006112aa83836111f9565b905092915050565b6000602082019050919050565b60006112ca82611124565b6112d4818561112f565b9350836020820285016112e685611140565b8060005b858110156113225784840389528151611303858261129e565b945061130e836112b2565b925060208a019950506001810190506112ea565b50829750879550505050505092915050565b6000602082019050818103600083015261134e81846112bf565b905092915050565b600073ffffffffffffffffffffffffffffffffffffffff82169050919050565b600061138182611356565b9050919050565b61139181611376565b82525050565b60006020820190506113ac6000830184611388565b92915050565b600081519050919050565b600082825260208201905092915050565b6000819050602082019050919050565b60006113ea83836111a7565b905092915050565b6000602082019050919050565b600061140a826113b2565b61141481856113bd565b935083602082028501611426856113ce565b8060005b85811015611462578484038952815161144385826113de565b945061144e836113f2565b925060208a0199505060018101905061142a565b50829750879550505050505092915050565b6000602082019050818103600083015261148e81846113ff565b905092915050565b6000604051905090565b600080fd5b600080fd5b600080fd5b600080fd5b7f4e487b7100000000000000000000000000000000000000000000000000000000600052604160045260246000fd5b6114ec82611196565b810181811067ffffffffffffffff8211171561150b5761150a6114b4565b5b80604052505050565b600061151e611496565b905061152a82826114e3565b919050565b600067ffffffffffffffff82111561154a576115496114b4565b5b61155382611196565b9050602081019050919050565b82818337600083830152505050565b600061158261157d8461152f565b611514565b90508281526020810184848401111561159e5761159d6114af565b5b6115a9848285611560565b509392505050565b600082601f8301126115c6576115c56114aa565b5b81356115d684826020860161156f565b91505092915050565b6000602082840312156115f5576115f46114a0565b5b600082013567ffffffffffffffff811115611613576116126114a5565b5b61161f848285016115b1565b91505092915050565b600060c083016000830151848203600086015261164582826111a7565b9150506020830151848203602086015261165f82826111a7565b9150506040830151848203604086015261167982826111a7565b915050606083015161168e60608601826111ea565b50608083015184820360808601526116a682826111a7565b91505060a083015184820360a08601526116c082826111a7565b9150508091505092915050565b600060208201905081810360008301526116e78184611628565b905092915050565b600082825260208201905092915050565b600061170b82611150565b61171581856116ef565b935061172581856020860161116c565b61172e81611196565b840191505092915050565b611742816111e0565b82525050565b600060c08201905081810360008301526117628189611700565b905081810360208301526117768188611700565b9050818103604083015261178a8187611700565b90506117996060830186611739565b81810360808301526117ab8185611700565b905081810360a08301526117bf8184611700565b9050979650505050505050565b6117d5816111e0565b81146117e057600080fd5b50565b6000813590506117f2816117cc565b92915050565b60008060008060008060c08789031215611815576118146114a0565b5b600087013567ffffffffffffffff811115611833576118326114a5565b5b61183f89828a016115b1565b965050602087013567ffffffffffffffff8111156118605761185f6114a5565b5b61186c89828a016115b1565b955050604087013567ffffffffffffffff81111561188d5761188c6114a5565b5b61189989828a016115b1565b945050606087013567ffffffffffffffff8111156118ba576118b96114a5565b5b6118c689828a016115b1565b93505060806118d789828a016117e3565b92505060a087013567ffffffffffffffff8111156118f8576118f76114a5565b5b61190489828a016115b1565b9150509295509295509295565b600060208284031215611927576119266114a0565b5b6000611935848285016117e3565b91505092915050565b600060208201905081810360008301526119588184611700565b905092915050565b7f4e487b7100000000000000000000000000000000000000000000000000000000600052603260045260246000fd5b7f4e487b7100000000000000000000000000000000000000000000000000000000600052602260045260246000fd5b600060028204905060018216806119d657607f821691505b6020821081036119e9576119e861198f565b5b50919050565b600081905092915050565b60008190508160005260206000209050919050565b60008154611a1c816119be565b611a2681866119ef565b94506001821660008114611a415760018114611a5657611a89565b60ff1983168652811515820286019350611a89565b611a5f856119fa565b60005b83811015611a8157815481890152600182019150602081019050611a62565b838801955050505b50505092915050565b6000611a9e8284611a0f565b915081905092915050565b6000611ab482611150565b611abe81856119ef565b9350611ace81856020860161116c565b80840191505092915050565b6000611ae68284611aa9565b915081905092915050565b7f4e6f7420617574686f72697a6564000000000000000000000000000000000000600082015250565b6000611b27600e836116ef565b9150611b3282611af1565b602082019050919050565b60006020820190508181036000830152611b5681611b1a565b9050919050565b7f4365727469666963617420696e6578697374616e740000000000000000000000600082015250565b6000611b936015836116ef565b9150611b9e82611b5d565b602082019050919050565b60006020820190508181036000830152611bc281611b86565b9050919050565b60006020601f8301049050919050565b600082821b905092915050565b600060088302611c167fffffffffffffffffffffffffffffffffffffffffffffffffffffffffffffffff82611bd9565b611c208683611bd9565b95508019841693508086168417925050509392505050565b6000819050919050565b6000611c5d611c58611c53846111e0565b611c38565b6111e0565b9050919050565b6000819050919050565b611c7783611c42565b611c8b611c8382611c64565b848454611be6565b825550505050565b600090565b611ca0611c93565b611cab818484611c6e565b505050565b5b81811015611ccf57611cc4600082611c98565b600181019050611cb1565b5050565b601f821115611d1457611ce5816119fa565b611cee84611bc9565b81016020851015611cfd578190505b611d11611d0985611bc9565b830182611cb0565b50505b505050565b600082821c905092915050565b6000611d3760001984600802611d19565b1980831691505092915050565b6000611d508383611d26565b9150826002028217905092915050565b611d6982611150565b67ffffffffffffffff811115611d8257611d816114b4565b5b611d8c82546119be565b611d97828285611cd3565b600060209050601f831160018114611dca5760008415611db8578287015190505b611dc28582611d44565b865550611e2a565b601f198416611dd8866119fa565b60005b82811015611e0057848901518255600182019150602085019450602081019050611ddb565b86831015611e1d5784890151611e19601f891682611d26565b8355505b6001600288020188555050505b50505050505056fea264697066735822122068d531e0194e095b905cbce503a35c1516c9a1bb8832e7cec97fa61460635c5b64736f6c634300081e0033",
  "linkReferences": {},
  "deployedLinkReferences": {}
}